S010000054696E79546573742E73726563D0
S113000019C028C027C0C1C025C024C023C022C035
S113001021C020C01FC01EC01DC01CC01BC01AC0F0
S113002019C018C017C016C015C014C013C012C020
S113003011C010C011241FBECFEFCDBFDFE3DEBF60
S11300402FE3A0E0BFE301C01D92A034B207E1F7A3
S1130050B4D002C5D5CF1092000686E08093010685
S113006080E58093020680EB8093030610920406D9
S113007087E080930606109216060895E0E1F8E002
S113008082E084838AE0868381E083830895880FF5
S1130090809317088091150886FFFCCF0895E0E14E
S11300A0F8E08481836084830895809318088091A4
S11300B0150886FFFCCF08958091080486FF02C0CE
S11300C080E001C088E09091080495FF8C5F9091D6
S11300D0080494FF8E5F9091080499230CF08F5FBD
S11300E00895E0E4F1E081E087838FEF85878487DA
S11300F0128289EA8083089510924001809141011F
S113010081FDFCCFE0E4F1E011861086809141018D
S113011081FDFCCFE6DF0895CF93DF93A1D3C0E048
S1130120D0E002C08AD42196CA30D105DCF3789499
S1130130E0E5F0E08081897F846080838081816054
S11301408083889580818E7F808377D47ED32FE7C8
S113015084E89EE1215080409040E1F700C0000017
S1130160F1D1CADFDF91CF9108957894E0E5F0E012
S11301708081897F8260808380818160808388958B
S113018080818E7F8083B8DF08951F920F920FB60F
S11301900F9211248F93EF93FF93E0E5F0E08081B9
S11301A08E7F80838FEF80930904FF91EF918F916D
S11301B00F900FBE0F901F901895E0E0F4E080813F
S11301C08E608083E4E0F4E080818E60808389E047
S11301D0809314048093150498E0909316048093FC
S11301E0170460E081E690E031D42FEF81E19AE7D3
S11301F0215080409040E1F700C0000072DF25D319
S11302001CD473D128DF19D439DF9CD116D46FD311
S113021080E090E006C0FC01E050F14C2FEF208319
S1130220019680349105BCF3A12CD12CE12CB12C86
S113023010E0C0E06894FF24F1F8809148019091A7
S1130240490181369A4E08F067DF36DF082FC095E2
S1130250C823E394C11105C084E68E1510F485DF2C
S1130260E12CCC2311F048DFE12C113049F5C130E9
S113027031F4B39492E09B1510F439D3B12CC4300B
S113028049F4BA9422E02B1528F431D30F2EF3E06D
S1130290BF2EF02DC83029F481E0B81202C0A12C81
S11302A0D12CC83029F492E0B91202C020D310E056
S11302B0C83009F051C0B1104FC019D312E04CC07E
S11302C0123069F4C83009F427DFC23029F0C43091
S11302D019F0C13009F040C00AD313E03DC0133017
S11302E069F4C83011F403D311E0C23021F0C430F2
S11302F011F0C13089F5FBD212E02EC0C13019F4DF
S1130300F11001C0A394C13021F421E0F21201C024
S1130310D394C43019F4F11001C0AA94C43021F468
S113032081E0F81201C0DA94C13029F492E0F912A4
S113033002C0A394D394C43029F422E0F21202C080
S1130340AA94DA94C83009F411E0C23029F4F39481
S113035082E08F1508F4F12C40E050E061E070E099
S11303608A2D0A2C000C990B05D3CD2C89E08D0D18
S1130370833158F018C042E06C2F80E27CD243E015
S11303806C2F80E278D2219602C0C8E0D0E0CC3055
S1130390D1058CF342E050E06AE070E08C2DCC0C87
S11303A0990BE8D209C042E050E068E070E08D2D7E
S11303B00D2C000C990BDED2F11004C041E061E079
S11303C08EE359D291E0F9120DC089E08D0D83318D
S11303D028F443E06AE08EE34ED204C043E068E0D0
S11303E08EE349D2113009F054C0B11005C040E089
S11303F060E08EE340D204C040E060E080E23BD2A3
S113040040E061E08FE437D240E062E080E533D23F
S113041040E063E084E52FD240E064E08EE42BD238
S113042040E065E083E527D221E0B21205C040E058
S113043066E08EE320D204C040E066E080E21BD296
S113044040E067E083E417D240E068E08CE413D234
S113045040E069E082E50FD282E0B81205C040E0D6
S11304606AE08EE308D204C040E06AE080E203D28E
S113047040E06BE085E4FFD140E06CE088E5FBD12F
S113048040E06DE089E4F7D140E06EE084E5F3D12B
S113049029C01230A9F440E061E083E5ECD140E0EA
S11304A062E08CE4E8D140E063E085E4E4D140E03C
S11304B064E085E4E0D140E065E080E5DCD112C091
S11304C0133081F440E061E084E4D5D140E062E09F
S11304D08FE4D1D140E063E08EE4CDD140E064E02C
S11304E085E4C9D188D0C02FA8CEE1E0F4E08081B2
S11304F080648083E4E0F4E080818064808386EB20
S113050092E0809308089093090880E88093060895
S113051083E0809307080895CF93C82F8CE3B7DD59
S113052080E0C3DD8C2FC1DDBADDCF910895CF9378
S1130530C82F8CE3ACDD80E4B8DD8C2FB6DDAFDDF5
S1130540CF9108950F931F93CF93DF93CDB7DEB769
S11305506B97CDBFDEBF81E080931508FE01319615
S11305608BE1DF011D928A95E9F78EEA898385ED97
S11305708A8380E88B8388EA8C838FE38D8383ED81
S11305808E8380E488879DE8998794E19A8790E236
S11305909B8791EA9D8798EC9E879AED9F8792E1CD
S11305A0988B91E8998B9FEC9A8B99ED9B8B91EFAB
S11305B09C8B9BED9D8B8E8B84EA8F8B86EA888F38
S11305C08FEA898F00E010E00BC0E1E0F0E0EC0F6F
S11305D0FD1FE00FF11F80819FDF2FD20F5F1F4FA0
S11305E00931110594F36B96CDBFDEBFDF91CF9136
S11305F01F910F910895EF92FF920F931F93CF9342
S1130600DF9380E489DFC0E0D0E015C1F701FF206B
S11306100CF43796F595E795F595E795F595E795F7
S1130620CE01DD230CF401969595879582959295DC
S1130630907F9827807F9827E80FF91FE050F14CAE
S11306402081C70187709078992324F40197886FDB
S11306509F6F0196AE0141705078552334F4415098
S113066051094E6F5F6F4F5F5F4F283208F042C0F1
S113067030E1239F800D911D1124FC01EE0FFF1F1B
S1130680E45AF5476081718181E090E0841B950B09
S1130690880F991F880F991F880F991F02C076959C
S11306A067958A95E2F740E050E080E01EC021E0C3
S11306B030E0042E02C0220F331F0A94E2F7FB013C
S11306C0FF272E233F23042E02C0359527950A9435
S11306D0E2F7E7E0F0E0E41BF50B02C0220F331F62
S11306E0EA95E2F7822B4F5F5F4F48305105FCF2E9
S11306F01EDF95C080E8820F883408F08EC0C701E1
S11307009595879583709078992324F401978C6F3D
S11307109F6F019621FD03C0E0E0F0E002C0E4E039
S1130720F0E0E80FF91F022F017010E026952695DE
S1130730822F90E0809782959295907F9827807F72
S11307409827E80FF91FEE0FFF1FE45AF5472081A1
S1130750318181E090E0801B910B880F991F880FF5
S1130760991F880F991FA90102C0569547958A952C
S1130770E2F7242FC0FD02C022952F70822F8170D2
S1130780982F990F890F422F427050E05595479545
S1130790942F990F490F942F990F990F980F422F67
S11307A0447050E0559547955595479580E3489F8B
S11307B0900D1124287030E03595279535952795AF
S11307C03595279540EC249F900D112440E050E08E
S11307D080E01EC021E030E0042E02C0220F331F4F
S11307E00A94E2F7692F70E026233723042E02C00F
S11307F0359527950A94E2F767E070E0641B750B62
S113080002C0220F331F6A95E2F7822B4F5F5F4FBE
S113081048305105FCF28BDE02C080E088DE5FEFD9
S1130820E51AF50A02C0E12CF12C80E8E816F1047F
S11308300CF4ECCE2196C830D105ACF3DF91CF9106
S11308401F910F91FF90EF900895E0E0F4E0808114
S11308508E608083E4E0F4E080818E60808308957C
S1130860109204041092000408958A3010F4805DFC
S113087008958EE3089590ED980F9A3018F19FEB48
S1130880980F9A3118F499EC980F1CC09FE9980FAF
S11308909A3118F499EA980F15C08C3351F08E33BD
S11308A051F08D3251F08B3251F0882354F09FEF88
S11308B009C094E207C096E205C095E203C097E23E
S11308C001C0982F70E080E1489F600D711D1124D4
S11308D06F737078772334F461507109606C7F6FA3
S11308E06F5F7F4FFB01E050F14C908308950F93AD
S11308F01F93CF93DF9300E010E00DC04C2F602FC7
S113090080E2B9DF219602C0C0E0D0E0C430D10556
S1130910ACF30F5F1F4F00311105B4F36CDEDF91B0
S1130920CF911F910F9108950F931F93CF93DF934E
S113093080538A30D0F4142FD62FC82FCC0FCC0F6D
S113094080E88C0F98DF01E0010F402F6D2F81E8C4
S11309508C0F91DFDF5F412F6D2F82E88C0F8BDFCF
S1130960402F6D2F83E88C0F86DFDF91CF911F918D
S11309700F9108950F931F93CF93DF93082FC62FE2
S1130980142F88234CF48DE276DF41E0410F6C2F65
S113099080E271DF019507C08BE26DDF41E0410F1A
S11309A06C2F80E268DF0A30DCF4802F5EDF62E0C7
S11309B06C0F412FB9DFD4E0DC0F412F6D2F80E2A3
S11309C05ADFCB5F412F6C2F80E255DF1F5F412F31
S11309D06D2F80E250DF412F6C2F80E24CDF28C066
S11309E087E60802D12D1124D595D59507FDD39519
S11309F0D802812D112485958595D7FD8395880F7F
S1130A00982F990F990F890F9D2F981B892F2DDFF0
S1130A1062E06C0F412F88DFDD0F8D2F880F880F68
S1130A20D80F802F8D1B21DF64E06C0F412F7CDFFA
S1130A30DF91CF911F910F91089580E090E001C064
S1130A400196811524E09207DCF30895DC0128ED7A
S10F0A50209334006C930895F894FFCFB9
S1130A5CC00FE01F303010233030E01FC00F0000F7
S1130A6C0000000000000000000000000000000076
S1130A7C000010081018F03FF03F100010000000A8
S1130A8C0000000000000000000000000000000056
S1130A9C7010F030902110231026303C30180000D8
S1130AAC0000000000000000000000000000000036
S1130ABC20103030102210221022F03FE01D0000D4
S1130ACC0000000000000000000000000000000016
S1130ADC00030007000D1019F03FF03F1001000057
S1130AEC00000000000000000000000000000000F6
S1130AFC203E303E102210221022F023E021000070
S1130B0C00000000000000000000000000000000D5
S1130B1CE00FF01F103210221022F003E00100004D
S1130B2C00000000000000000000000000000000B5
S1130B3C00300030F020F0210023003E003C000087
S1130B4C0000000000000000000000000000000095
S1130B5CE01DF03F102210221022F03FE01D000097
S1130B6C0000000000000000000000000000000075
S1130B7C001C103E102210223022E03FC01F000047
S1130B8C0000000000000000000000000000000055
S1130B9CF007F00F001900310019F00FF0070000F6
S1130BAC0000000000000000000000000000000035
S1130BBC1020F03FF03F10221022F03FE01D000007
S1130BCC0000000000000000000000000000000015
S1130BDCC00FE01F3030102010203030601800009F
S1130BEC00000000000000000000000000000000F5
S1130BFC1020F03FF03F10203030E01FC00F0000F9
S1130C0C00000000000000000000000000000000D4
S1130C1C1020F03FF03F10221027303070380000C5
S1130C2C00000000000000000000000000000000B4
S1130C3C1020F03FF03F1022002700300038000055
S1130C4C0000000000000000000000000000000094
S1130C5CC00FE01F303010211021E031F0190000DA
S1130C6C0000000000000000000000000000000074
S1130C7CF03FF03F000200020002F03FF03F0000A2
S1130C8C0000000000000000000000000000000054
S1130C9C000000001020F03FF03F10200000000086
S1130CAC0000000000000000000000000000000034
S1130CBCE000F00010001020F03FE03F00200000A6
S1130CCC0000000000000000000000000000000014
S1130CDC1020F03FF03F00038007F03C7038000018
S1130CEC00000000000000000000000000000000F4
S1130CFC1020F03FF03F1020100030007000000076
S1130D0C00000000000000000000000000000000D3
S1130D1CF03FF03F001C000E001CF03FF03F0000C1
S1130D2C00000000000000000000000000000000B3
S1130D3CF03FF03F001C000E0007F03FF03F0000B6
S1130D4C0000000000000000000000000000000093
S1130D5CE01FF03F102010201020F03FE01F000097
S1130D6C0000000000000000000000000000000073
S1130D7C1020F03FF03F10220022003E001C000027
S1130D8C0000000000000000000000000000000053
S1130D9CE01FF03F102070203C20FC3FE41F0000BB
S1130DAC0000000000000000000000000000000033
S1130DBC1020F03FF03F00220023F03FF01C000015
S1130DCC0000000000000000000000000000000013
S1130DDC6018703C102610221023F039E018000023
S1130DEC00000000000000000000000000000000F3
S1130DFC000000381030F03FF03F10300038000095
S1130E0C00000000000000000000000000000000D2
S1130E1CE03FF03F100010001000F03FE03F0000F6
S1130E2C00000000000000000000000000000000B2
S1130E3C803FC03F600030006000C03F803F000036
S1130E4C0000000000000000000000000000000092
S1130E5CE03FF03F7000C0037000F03FE03F000043
S1130E6C0000000000000000000000000000000072
S1130E7C3030F03CC00F8007C00FF03C3030000025
S1130E8C0000000000000000000000000000000052
S1130E9C0000003C103EF003F003103E003C000048
S1130EAC0000000000000000000000000000000032
S1130EBC7038F030902110231026303C703800002C
S1130ECC0000000000000000000000000000000012
S1130EDC000000018003C006600C301810100000E4
S1130EEC00000000000000000000000000000000F2
S1130EFC00010001000100010001000100010000DB
S1130F0C00000000000000000000000000000000D1
S1130F1C000010103018600CC006800300010000A3
S1130F2C00000000000000000000000000000000B1
S1130F3C000100010001E00F0001000100010000AC
S1130F4C0000000000000000000000000000000091
S9030000FC
