S010000054696E79546573742E73726563D0
S113000019C028C027C026C025C024C023C022C0D0
S113001021C020C01FC01EC01DC01CC01BC01AC0F0
S113002019C018C017C016C015C014C013C012C020
S113003011C010C011241FBECFEFCDBFDFE3DEBF60
S11300402FE3A0E0BFE301C01D92A034B207E1F7A3
S113005042D0A7C1D5CFE0E1F8E082E0848384E117
S1130060868381E083830895880F809317088091A5
S1130070150886FFFCCF0895E0E1F8E084818360F1
S113008084830895809318088091150886FFFCCF17
S11300900895109200061092010680E580930206EE
S11300A080EB809303061092040687E08093060693
S11300B010921606089581E0809300068093080646
S11300C08091080680FDFCCF809110069091110666
S11300D010920006089558D12DD13AD0DADF5AD1C2
S11300E0EADFB9DF6DD056D15ED0E0E0FFE380E413
S11300F09FE32FEF21938E179F07E1F791D00FEB2A
S113010013E8C0E040E06C2FF80181918F011DD10C
S1130110CF5FCB30B9F7C12CD12C7601C5E1DFE339
S1130120FFEFCF1ADF0AEF0AFF0AEDE1FFE3D70181
S1130130C601282F2F70229324E0B695A795979592
S113014087952A95D1F7CE17DF0799F769D0E8CFBD
S1130150E1E0F4E080818FEF8083E4E0F4E08081EB
S11301608064808386EB92E080930808909309086A
S113017080EC8093060883E0809307080895CF936A
S1130180C82F8CE371DF80E07DDF8C2F7BDFCF9184
S113019073CFCF93C82F8CE367DF80E473DF8C2F9A
S11301A071DFCF9169CFCF93DF9380E4E8DFC0E0C4
S11301B0D4E080E0EEDF2197E1F7DF91CF9108955D
S11301C0EF92FF920F931F93CF93DF93CDB7DEB7D8
S11301D06997CDBFDEBF81E08093150889E1E6EA27
S11301E0F3E8DE01119601900D928A95E1F78E01F4
S11301F00F5F1F4F7E018AE1E80EF11CF801819127
S11302008F01BDDFC7D00E151F05C1F76996CDBF9D
S1130210DEBFDF91CF911F910F91FF90EF90089572
S11302208F929F92AF92BF92CF92DF92EF92FF9202
S11302300F931F93CF93DF9380E4A1DF812C912C44
S1130240CC24C394D12C67E0A62EB12CE401D5951F
S1130250C79594E0CC0FDD1F9A95E1F7C401817036
S113026099277601E81AF90A23E0EE0CFF1C2A9577
S1130270E1F700E010E0C050D14CF80143E0F595FF
S1130280E7954A95E1F7EC0FFD1F80818532A8F5CB
S1130290F801E770FF2790E1899FE00DF11D11241B
S11302A0EE0FFF1FE653FC47608171810E2C02C0E4
S11302B0769567950A94E2F740E050E080E077276E
S11302C09601042E02C0220F331F0A94E2F726235C
S11302D03723042E02C0359527950A94E2F7F501D9
S11302E0E41BF50B01C0220FEA95EAF7822B4F5F5E
S11302F05F4F4830510521F701C080E04ADF0F5FAE
S11303001F4F0038110509F0B8CF8FEF881A980AEB
S113031098E08916910409F099CFDF91CF911F914C
S11303200F91FF90EF90DF90CF90BF90AF909F9090
S11303308F900895E0E0F4E0808188608083E4E0B9
S1130340F4E0808188608083089590ED980F9A305E
S113035070F09FEB980F9A3110F499EC05C09FE967
S1130360980F9A3118F499EA980F01C09FEFE62F7D
S1130370F0E080E1489FE00DF11D1124EF73FF27A9
S1130380E050F14C90830895609161006E7F81E6A6
S113039090E001C00895DC0128ED209334006C93B3
S10903A00895F894FFCF5C
S11303A6AED580A83FD300408D142000A1C8DA1230
S11303B681CFD9F1DB40A4A6AF424947204E554D23
S11303C642455200C00FE01F303010233030E01F8A
S11303D6C00F000000000000000000000000000044
S11303E600000000000010081018F03FF03F100055
S11303F610000000000000000000000000000000E3
S1130406000000007010F030902110231026303CBC
S1130416301800000000000000000000000000008A
S11304260000000020103030102210221022F03F6D
S1130436E01D0000000000000000000000000000B5
S11304460000000000030007000D1019F03FF03F04
S11304561001000000000000000000000000000081
S113046600000000203E303E102210221022F0230D
S1130476E021000000000000000000000000000071
S113048600000000E00FF01F103210221022F003CB
S1130496E001000000000000000000000000000071
S11304A60000000000300030F020F0210023003E60
S11304B6003C0000000000000000000000000000F6
S11304C600000000E01DF03F102210221022F03F31
S11304D6E01D000000000000000000000000000015
S11304E600000000001C103E102210223022E03FC3
S11304F6C01F000000000000000000000000000013
S113050600000000F007F00F001900310019F00F89
S1130516F0070000000000000000000000000000DA
S1130526000000001020F03FF03F10221022F03FA0
S1130536E01D0000000000000000000000000000B4
S113054600000000C00FE01F3030102010203030B3
S11305566018000000000000000000000000000019
S1130566000000001020F03FF03F10203030E01F64
S1130576C00F0000000000000000000000000000A2
S1130586000000001020F03FF03F1022102730300A
S113059670380000000000000000000000000000A9
S11305A6000000001020F03FF03F1022002700302A
S11305B600380000000000000000000000000000F9
S11305C600000000C00FE01F303010211021E03180
S11305D6F019000000000000000000000000000008
S11305E600000000F03FF03F000200020002F03F6E
S11305F6F03F0000000000000000000000000000C2
S113060600000000000000001020F03FF03F102022
S113061600000000000000000000000000000000D0
S113062600000000E000F00010001020F03FE03F62
S11306360020000000000000000000000000000090
S1130646000000001020F03FF03F00038007F03C5C
S113065670380000000000000000000000000000E8
S1130666000000001020F03FF03F10201000300082
S11306767000000000000000000000000000000000
S113068600000000F03FF03F001C000E001CF03F8D
S1130696F03F000000000000000000000000000021
S11306A600000000F03FF03F001C000E0007F03F82
S11306B6F03F000000000000000000000000000001
S11306C600000000E01FF03F102010201020F03F33
S11306D6E01F000000000000000000000000000011
S11306E6000000001020F03FF03F10220022003EE0
S11306F6001C0000000000000000000000000000D4
S113070600000000E01FF03F102070203C20FC3F5A
S1130716E41F0000000000000000000000000000CC
S1130726000000001020F03FF03F00220023F03FBD
S1130736F01C0000000000000000000000000000A3
S1130746000000006018703C102610221023F039B7
S1130756E018000000000000000000000000000097
S113076600000000000000381030F03FF03F103069
S11307760038000000000000000000000000000037
S113078600000000E03FF03F100010001000F03FB2
S1130796E03F000000000000000000000000000030
S11307A600000000803FC03F600030006000C03F92
S11307B6803F000000000000000000000000000070
S11307C600000000E03FF03F7000C0037000F03FFF
S11307D6E03F0000000000000000000000000000F0
S11307E6000000003030F03CC00F8007C00FF03C22
S11307F6303000000000000000000000000000008F
S1130806000000000000003C103EF003F003103E20
S1130816003C000000000000000000000000000092
S1130826000000007038F030902110231026303C70
S11308367038000000000000000000000000000006
S107084600000000AA
S9030000FC
